{
  "contractName": "AssetTracker",
  "abi": [
    {
      "constant": true,
      "inputs": [
        {
          "name": "",
          "type": "uint256"
        }
      ],
      "name": "AssetStore",
      "outputs": [
        {
          "name": "id",
          "type": "uint256"
        },
        {
          "name": "batchNo",
          "type": "string"
        },
        {
          "name": "name",
          "type": "string"
        },
        {
          "name": "description",
          "type": "string"
        },
        {
          "name": "manufacturer",
          "type": "string"
        },
        {
          "name": "statusCount",
          "type": "uint256"
        }
      ],
      "payable": false,
      "stateMutability": "view",
      "type": "function",
      "signature": "0x69e94f9f"
    },
    {
      "constant": true,
      "inputs": [],
      "name": "assetCount",
      "outputs": [
        {
          "name": "",
          "type": "uint256"
        }
      ],
      "payable": false,
      "stateMutability": "view",
      "type": "function",
      "signature": "0xeafe7a74"
    },
    {
      "anonymous": false,
      "inputs": [
        {
          "indexed": false,
          "name": "id",
          "type": "uint256"
        },
        {
          "indexed": false,
          "name": "manufacturer",
          "type": "string"
        },
        {
          "indexed": false,
          "name": "status",
          "type": "string"
        }
      ],
      "name": "AssetCreate",
      "type": "event",
      "signature": "0xb4bf1d5e0466b8936db2b4da84f032fa677558bd277aa5bd4e69c4201f24585d"
    },
    {
      "anonymous": false,
      "inputs": [
        {
          "indexed": false,
          "name": "id",
          "type": "uint256"
        },
        {
          "indexed": false,
          "name": "newOwner",
          "type": "string"
        }
      ],
      "name": "AssetTransfer",
      "type": "event",
      "signature": "0x5e85e4ccc7a51ddb56b745a755d5cf7d97270d005bc66e7cce2d17d73249e9ea"
    },
    {
      "constant": false,
      "inputs": [
        {
          "name": "_batchNo",
          "type": "string"
        },
        {
          "name": "_name",
          "type": "string"
        },
        {
          "name": "_description",
          "type": "string"
        },
        {
          "name": "_manufacturer",
          "type": "string"
        },
        {
          "name": "_owner",
          "type": "string"
        },
        {
          "name": "_status",
          "type": "string"
        }
      ],
      "name": "createAsset",
      "outputs": [
        {
          "name": "",
          "type": "uint256"
        }
      ],
      "payable": false,
      "stateMutability": "nonpayable",
      "type": "function",
      "signature": "0xed0bb96b"
    },
    {
      "constant": true,
      "inputs": [
        {
          "name": "_id",
          "type": "uint256"
        }
      ],
      "name": "getAsset",
      "outputs": [
        {
          "name": "",
          "type": "string"
        },
        {
          "name": "",
          "type": "string"
        },
        {
          "name": "",
          "type": "string"
        },
        {
          "name": "",
          "type": "string"
        },
        {
          "name": "",
          "type": "string"
        },
        {
          "name": "",
          "type": "string"
        }
      ],
      "payable": false,
      "stateMutability": "view",
      "type": "function",
      "signature": "0xeac8f5b8"
    },
    {
      "constant": false,
      "inputs": [
        {
          "name": "_id",
          "type": "uint256"
        },
        {
          "name": "_newOwner",
          "type": "string"
        },
        {
          "name": "_status",
          "type": "string"
        }
      ],
      "name": "transferAsset",
      "outputs": [
        {
          "name": "",
          "type": "string"
        }
      ],
      "payable": false,
      "stateMutability": "nonpayable",
      "type": "function",
      "signature": "0x8e938ced"
    },
    {
      "constant": true,
      "inputs": [],
      "name": "getAssetCount",
      "outputs": [
        {
          "name": "",
          "type": "uint256"
        }
      ],
      "payable": false,
      "stateMutability": "view",
      "type": "function",
      "signature": "0xa0aead4d"
    },
    {
      "constant": true,
      "inputs": [
        {
          "name": "_id",
          "type": "uint256"
        },
        {
          "name": "_statusCount",
          "type": "uint256"
        }
      ],
      "name": "getStatus",
      "outputs": [
        {
          "name": "",
          "type": "uint256"
        },
        {
          "name": "",
          "type": "string"
        },
        {
          "name": "",
          "type": "string"
        }
      ],
      "payable": false,
      "stateMutability": "view",
      "type": "function",
      "signature": "0xa745da65"
    }
  ],
  "bytecode": "0x6080604052600060015534801561001557600080fd5b50611ab7806100256000396000f3fe608060405260043610610083576000357c0100000000000000000000000000000000000000000000000000000000900463ffffffff16806369e94f9f146100885780638e938ced1461028e578063a0aead4d14610470578063a745da651461049b578063eac8f5b8146105cc578063eafe7a741461089c578063ed0bb96b146108c7575b600080fd5b34801561009457600080fd5b506100c1600480360360208110156100ab57600080fd5b8101908080359060200190929190505050610c96565b604051808781526020018060200180602001806020018060200186815260200185810385528a818151815260200191508051906020019080838360005b838110156101195780820151818401526020810190506100fe565b50505050905090810190601f1680156101465780820380516001836020036101000a031916815260200191505b50858103845289818151815260200191508051906020019080838360005b8381101561017f578082015181840152602081019050610164565b50505050905090810190601f1680156101ac5780820380516001836020036101000a031916815260200191505b50858103835288818151815260200191508051906020019080838360005b838110156101e55780820151818401526020810190506101ca565b50505050905090810190601f1680156102125780820380516001836020036101000a031916815260200191505b50858103825287818151815260200191508051906020019080838360005b8381101561024b578082015181840152602081019050610230565b50505050905090810190601f1680156102785780820380516001836020036101000a031916815260200191505b509a505050505050505050505060405180910390f35b34801561029a57600080fd5b506103f5600480360360608110156102b157600080fd5b8101908080359060200190929190803590602001906401000000008111156102d857600080fd5b8201836020820111156102ea57600080fd5b8035906020019184600183028401116401000000008311171561030c57600080fd5b91908080601f016020809104026020016040519081016040528093929190818152602001838380828437600081840152601f19601f8201169050808301925050505050505091929192908035906020019064010000000081111561036f57600080fd5b82018360208201111561038157600080fd5b803590602001918460018302840111640100000000831117156103a357600080fd5b91908080601f016020809104026020016040519081016040528093929190818152602001838380828437600081840152601f19601f820116905080830192505050505050509192919290505050610f32565b6040518080602001828103825283818151815260200191508051906020019080838360005b8381101561043557808201518184015260208101905061041a565b50505050905090810190601f1680156104625780820380516001836020036101000a031916815260200191505b509250505060405180910390f35b34801561047c57600080fd5b506104856110a2565b6040518082815260200191505060405180910390f35b3480156104a757600080fd5b506104de600480360360408110156104be57600080fd5b8101908080359060200190929190803590602001909291905050506110ac565b604051808481526020018060200180602001838103835285818151815260200191508051906020019080838360005b8381101561052857808201518184015260208101905061050d565b50505050905090810190601f1680156105555780820380516001836020036101000a031916815260200191505b50838103825284818151815260200191508051906020019080838360005b8381101561058e578082015181840152602081019050610573565b50505050905090810190601f1680156105bb5780820380516001836020036101000a031916815260200191505b509550505050505060405180910390f35b3480156105d857600080fd5b50610605600480360360208110156105ef57600080fd5b810190808035906020019092919050505061125e565b6040518080602001806020018060200180602001806020018060200187810387528d818151815260200191508051906020019080838360005b8381101561065957808201518184015260208101905061063e565b50505050905090810190601f1680156106865780820380516001836020036101000a031916815260200191505b5087810386528c818151815260200191508051906020019080838360005b838110156106bf5780820151818401526020810190506106a4565b50505050905090810190601f1680156106ec5780820380516001836020036101000a031916815260200191505b5087810385528b818151815260200191508051906020019080838360005b8381101561072557808201518184015260208101905061070a565b50505050905090810190601f1680156107525780820380516001836020036101000a031916815260200191505b5087810384528a818151815260200191508051906020019080838360005b8381101561078b578082015181840152602081019050610770565b50505050905090810190601f1680156107b85780820380516001836020036101000a031916815260200191505b50878103835289818151815260200191508051906020019080838360005b838110156107f15780820151818401526020810190506107d6565b50505050905090810190601f16801561081e5780820380516001836020036101000a031916815260200191505b50878103825288818151815260200191508051906020019080838360005b8381101561085757808201518184015260208101905061083c565b50505050905090810190601f1680156108845780820380516001836020036101000a031916815260200191505b509c5050505050505050505050505060405180910390f35b3480156108a857600080fd5b506108b16116f4565b6040518082815260200191505060405180910390f35b3480156108d357600080fd5b50610c80600480360360c08110156108ea57600080fd5b810190808035906020019064010000000081111561090757600080fd5b82018360208201111561091957600080fd5b8035906020019184600183028401116401000000008311171561093b57600080fd5b91908080601f016020809104026020016040519081016040528093929190818152602001838380828437600081840152601f19601f8201169050808301925050505050505091929192908035906020019064010000000081111561099e57600080fd5b8201836020820111156109b057600080fd5b803590602001918460018302840111640100000000831117156109d257600080fd5b91908080601f016020809104026020016040519081016040528093929190818152602001838380828437600081840152601f19601f82011690508083019250505050505050919291929080359060200190640100000000811115610a3557600080fd5b820183602082011115610a4757600080fd5b80359060200191846001830284011164010000000083111715610a6957600080fd5b91908080601f016020809104026020016040519081016040528093929190818152602001838380828437600081840152601f19601f82011690508083019250505050505050919291929080359060200190640100000000811115610acc57600080fd5b820183602082011115610ade57600080fd5b80359060200191846001830284011164010000000083111715610b0057600080fd5b91908080601f016020809104026020016040519081016040528093929190818152602001838380828437600081840152601f19601f82011690508083019250505050505050919291929080359060200190640100000000811115610b6357600080fd5b820183602082011115610b7557600080fd5b80359060200191846001830284011164010000000083111715610b9757600080fd5b91908080601f016020809104026020016040519081016040528093929190818152602001838380828437600081840152601f19601f82011690508083019250505050505050919291929080359060200190640100000000811115610bfa57600080fd5b820183602082011115610c0c57600080fd5b80359060200191846001830284011164010000000083111715610c2e57600080fd5b91908080601f016020809104026020016040519081016040528093929190818152602001838380828437600081840152601f19601f8201169050808301925050505050505091929192905050506116fa565b6040518082815260200191505060405180910390f35b6000602052806000526040600020600091509050806000015490806001018054600181600116156101000203166002900480601f016020809104026020016040519081016040528092919081815260200182805460018160011615610100020316600290048015610d485780601f10610d1d57610100808354040283529160200191610d48565b820191906000526020600020905b815481529060010190602001808311610d2b57829003601f168201915b505050505090806002018054600181600116156101000203166002900480601f016020809104026020016040519081016040528092919081815260200182805460018160011615610100020316600290048015610de65780601f10610dbb57610100808354040283529160200191610de6565b820191906000526020600020905b815481529060010190602001808311610dc957829003601f168201915b505050505090806003018054600181600116156101000203166002900480601f016020809104026020016040519081016040528092919081815260200182805460018160011615610100020316600290048015610e845780601f10610e5957610100808354040283529160200191610e84565b820191906000526020600020905b815481529060010190602001808311610e6757829003601f168201915b505050505090806004018054600181600116156101000203166002900480601f016020809104026020016040519081016040528092919081815260200182805460018160011615610100020316600290048015610f225780601f10610ef757610100808354040283529160200191610f22565b820191906000526020600020905b815481529060010190602001808311610f0557829003601f168201915b5050505050908060050154905086565b606060008085815260200190815260200160002060050160008154809291906001019190505550606060405190810160405280428152602001838152602001848152506000808681526020019081526020016000206006016000806000888152602001908152602001600020600501548152602001908152602001600020600082015181600001556020820151816001019080519060200190610fd69291906119c4565b506040820151816002019080519060200190610ff39291906119c4565b509050507f5e85e4ccc7a51ddb56b745a755d5cf7d97270d005bc66e7cce2d17d73249e9ea84846040518083815260200180602001828103825283818151815260200191508051906020019080838360005b83811015611060578082015181840152602081019050611045565b50505050905090810190601f16801561108d5780820380516001836020036101000a031916815260200191505b50935050505060405180910390a19392505050565b6000600154905090565b60006060806110b9611a44565b60008087815260200190815260200160002060060160008681526020019081526020016000206060604051908101604052908160008201548152602001600182018054600181600116156101000203166002900480601f01602080910402602001604051908101604052809291908181526020018280546001816001161561010002031660029004801561118e5780601f106111635761010080835404028352916020019161118e565b820191906000526020600020905b81548152906001019060200180831161117157829003601f168201915b50505050508152602001600282018054600181600116156101000203166002900480601f0160208091040260200160405190810160405280929190818152602001828054600181600116156101000203166002900480156112305780601f1061120557610100808354040283529160200191611230565b820191906000526020600020905b81548152906001019060200180831161121357829003601f168201915b5050505050815250509050806000015181602001518260400151819150809050935093509350509250925092565b6060806060806060806000808881526020019081526020016000206001016000808981526020019081526020016000206002016000808a81526020019081526020016000206004016000808b815260200190815260200160002060060160008060008d81526020019081526020016000206005015481526020019081526020016000206002016000808c815260200190815260200160002060060160008060008e81526020019081526020016000206005015481526020019081526020016000206001016000808d8152602001908152602001600020600301858054600181600116156101000203166002900480601f0160208091040260200160405190810160405280929190818152602001828054600181600116156101000203166002900480156113cc5780601f106113a1576101008083540402835291602001916113cc565b820191906000526020600020905b8154815290600101906020018083116113af57829003601f168201915b50505050509550848054600181600116156101000203166002900480601f0160208091040260200160405190810160405280929190818152602001828054600181600116156101000203166002900480156114685780601f1061143d57610100808354040283529160200191611468565b820191906000526020600020905b81548152906001019060200180831161144b57829003601f168201915b50505050509450838054600181600116156101000203166002900480601f0160208091040260200160405190810160405280929190818152602001828054600181600116156101000203166002900480156115045780601f106114d957610100808354040283529160200191611504565b820191906000526020600020905b8154815290600101906020018083116114e757829003601f168201915b50505050509350828054600181600116156101000203166002900480601f0160208091040260200160405190810160405280929190818152602001828054600181600116156101000203166002900480156115a05780601f10611575576101008083540402835291602001916115a0565b820191906000526020600020905b81548152906001019060200180831161158357829003601f168201915b50505050509250818054600181600116156101000203166002900480601f01602080910402602001604051908101604052809291908181526020018280546001816001161561010002031660029004801561163c5780601f106116115761010080835404028352916020019161163c565b820191906000526020600020905b81548152906001019060200180831161161f57829003601f168201915b50505050509150808054600181600116156101000203166002900480601f0160208091040260200160405190810160405280929190818152602001828054600181600116156101000203166002900480156116d85780601f106116ad576101008083540402835291602001916116d8565b820191906000526020600020905b8154815290600101906020018083116116bb57829003601f168201915b5050505050905095509550955095509550955091939550919395565b60015481565b600060016000815480929190600101919050555060c0604051908101604052806001548152602001888152602001878152602001868152602001858152602001600081525060008060015481526020019081526020016000206000820151816000015560208201518160010190805190602001906117799291906119c4565b5060408201518160020190805190602001906117969291906119c4565b5060608201518160030190805190602001906117b39291906119c4565b5060808201518160040190805190602001906117d09291906119c4565b5060a08201518160050155905050600080600154815260200190815260200160002060050160008154809291906001019190505550606060405190810160405280428152602001838152602001848152506000806001548152602001908152602001600020600601600080600060015481526020019081526020016000206005015481526020019081526020016000206000820151816000015560208201518160010190805190602001906118869291906119c4565b5060408201518160020190805190602001906118a39291906119c4565b509050507fb4bf1d5e0466b8936db2b4da84f032fa677558bd277aa5bd4e69c4201f24585d6001548584604051808481526020018060200180602001838103835285818151815260200191508051906020019080838360005b838110156119175780820151818401526020810190506118fc565b50505050905090810190601f1680156119445780820380516001836020036101000a031916815260200191505b50838103825284818151815260200191508051906020019080838360005b8381101561197d578082015181840152602081019050611962565b50505050905090810190601f1680156119aa5780820380516001836020036101000a031916815260200191505b509550505050505060405180910390a19695505050505050565b828054600181600116156101000203166002900490600052602060002090601f016020900481019282601f10611a0557805160ff1916838001178555611a33565b82800160010185558215611a33579182015b82811115611a32578251825591602001919060010190611a17565b5b509050611a409190611a66565b5090565b6060604051908101604052806000815260200160608152602001606081525090565b611a8891905b80821115611a84576000816000905550600101611a6c565b5090565b9056fea165627a7a72305820b1a3b7f9c2f590f80a60d992d579a16c5e9ae85eb38311167cfb8f3fdd658e1c0029",
  "source": "pragma solidity ^0.5.0;\r\nimport \"./AssetLibrary.sol\";\r\n\r\ncontract AssetTracker {\r\n    \r\n    mapping(uint => AssetLibrary.Asset) public AssetStore;\r\n    uint256 public assetCount= 0;\r\n    \r\n    function createAsset(\r\n        string memory _batchNo,\r\n        string memory _name,\r\n        string memory _description,\r\n        string memory _manufacturer,\r\n        string memory _owner,\r\n        string memory _status\r\n        ) public returns(uint256) {\r\n        \r\n        assetCount++;\r\n        AssetStore[assetCount]= AssetLibrary.Asset(assetCount, _batchNo, _name, _description, _manufacturer , 0);\r\n        AssetStore[assetCount].statusCount++;\r\n        AssetStore[assetCount].status[AssetStore[assetCount].statusCount]=AssetLibrary.Status(block.timestamp, _status, _owner);\r\n        emit AssetCreate(assetCount, _manufacturer, _status);\r\n    }\r\n    \r\n    \r\n    function getAsset(uint _id) view public returns(string memory, string memory, string memory, string memory, string memory, string memory) {\r\n        return (AssetStore[_id].batchNo, AssetStore[_id].name, AssetStore[_id].manufacturer, AssetStore[_id].status[AssetStore[_id].statusCount].owner, AssetStore[_id].status[AssetStore[_id].statusCount].status, AssetStore[_id].description);\r\n    }\r\n    \r\n    function transferAsset(uint _id, string memory _newOwner, string memory _status) public returns(string memory) {\r\n        AssetStore[_id].statusCount++;\r\n        AssetStore[_id].status[AssetStore[_id].statusCount]=AssetLibrary.Status(block.timestamp, _status, _newOwner);\r\n        emit AssetTransfer(_id, _newOwner);\r\n    }\r\n    \r\n    function getAssetCount() view public returns(uint) {\r\n        return assetCount;\r\n    }\r\n    \r\n    function getStatus(uint _id, uint _statusCount) view public returns(uint, string memory, string memory) {\r\n        AssetLibrary.Status memory s= AssetStore[_id].status[_statusCount];\r\n        return (s.time, s.status, s.owner);\r\n    }\r\n    \r\n    event AssetCreate(uint id, string manufacturer, string status);\r\n    event AssetTransfer(uint id, string newOwner);\r\n}",
  "sourcePath": "C:/Users/Lavi Sharma/Documents/ASSET-TRACKER-PRODUCTION/contracts/AssetTracker.sol",
  "compiler": {
    "name": "solc",
    "version": "0.5.0+commit.1d4f565a.Emscripten.clang"
  },
  "schemaVersion": "3.0.1",
  "updatedAt": "2019-03-03T06:36:10.187Z",
  "devdoc": {
    "methods": {}
  },
  "userdoc": {
    "methods": {}
  }
}